{
    "_format": "hh-sol-artifact-1",
    "contractName": "Lockv2",
    "sourceName": "contracts/Lockv2.sol",
    "abi": [
        {
            "anonymous": false,
            "inputs": [
                {
                    "indexed": true,
                    "internalType": "address",
                    "name": "user",
                    "type": "address"
                },
                {
                    "indexed": false,
                    "internalType": "uint256",
                    "name": "amount",
                    "type": "uint256"
                },
                {
                    "indexed": false,
                    "internalType": "uint256",
                    "name": "releaseTime",
                    "type": "uint256"
                }
            ],
            "name": "Deposited",
            "type": "event"
        },
        {
            "anonymous": false,
            "inputs": [
                {
                    "indexed": true,
                    "internalType": "address",
                    "name": "user",
                    "type": "address"
                },
                {
                    "indexed": false,
                    "internalType": "uint256",
                    "name": "amount",
                    "type": "uint256"
                }
            ],
            "name": "Withdrawn",
            "type": "event"
        },
        {
            "inputs": [
                {
                    "internalType": "uint256",
                    "name": "_lockDuration",
                    "type": "uint256"
                }
            ],
            "name": "deposit",
            "outputs": [],
            "stateMutability": "payable",
            "type": "function"
        },
        {
            "inputs": [
                {
                    "internalType": "address",
                    "name": "",
                    "type": "address"
                }
            ],
            "name": "deposits",
            "outputs": [
                {
                    "internalType": "uint256",
                    "name": "amount",
                    "type": "uint256"
                },
                {
                    "internalType": "uint256",
                    "name": "releaseTime",
                    "type": "uint256"
                }
            ],
            "stateMutability": "view",
            "type": "function"
        },
        {
            "inputs": [],
            "name": "withdraw",
            "outputs": [],
            "stateMutability": "nonpayable",
            "type": "function"
        }
    ],
    "bytecode": "0x608060405234801561001057600080fd5b506106fc806100206000396000f3fe6080604052600436106100345760003560e01c80633ccfd60b14610039578063b6b55f2514610050578063fc7e286d1461006c575b600080fd5b34801561004557600080fd5b5061004e6100aa565b005b61006a600480360381019061006591906103dd565b61026d565b005b34801561007857600080fd5b50610093600480360381019061008e9190610468565b61037e565b6040516100a19291906104a4565b60405180910390f35b60008060003373ffffffffffffffffffffffffffffffffffffffff1673ffffffffffffffffffffffffffffffffffffffff16815260200190815260200160002090506000816000015411610133576040517f08c379a000000000000000000000000000000000000000000000000000000000815260040161012a9061052a565b60405180910390fd5b806001015442101561017a576040517f08c379a000000000000000000000000000000000000000000000000000000000815260040161017190610596565b60405180910390fd5b6000816000015490506000803373ffffffffffffffffffffffffffffffffffffffff1673ffffffffffffffffffffffffffffffffffffffff168152602001908152602001600020600080820160009055600182016000905550503373ffffffffffffffffffffffffffffffffffffffff166108fc829081150290604051600060405180830381858888f1935050505015801561021a573d6000803e3d6000fd5b503373ffffffffffffffffffffffffffffffffffffffff167f7084f5476618d8e60b11ef0d7d3f06914655adb8793e28ff7f018d4c76d505d58260405161026191906105b6565b60405180910390a25050565b600081116102b0576040517f08c379a00000000000000000000000000000000000000000000000000000000081526004016102a790610643565b60405180910390fd5b600081426102be9190610692565b90506040518060400160405280348152602001828152506000803373ffffffffffffffffffffffffffffffffffffffff1673ffffffffffffffffffffffffffffffffffffffff16815260200190815260200160002060008201518160000155602082015181600101559050503373ffffffffffffffffffffffffffffffffffffffff167f73a19dd210f1a7f902193214c0ee91dd35ee5b4d920cba8d519eca65a7b488ca34836040516103729291906104a4565b60405180910390a25050565b60006020528060005260406000206000915090508060000154908060010154905082565b600080fd5b6000819050919050565b6103ba816103a7565b81146103c557600080fd5b50565b6000813590506103d7816103b1565b92915050565b6000602082840312156103f3576103f26103a2565b5b6000610401848285016103c8565b91505092915050565b600073ffffffffffffffffffffffffffffffffffffffff82169050919050565b60006104358261040a565b9050919050565b6104458161042a565b811461045057600080fd5b50565b6000813590506104628161043c565b92915050565b60006020828403121561047e5761047d6103a2565b5b600061048c84828501610453565b91505092915050565b61049e816103a7565b82525050565b60006040820190506104b96000830185610495565b6104c66020830184610495565b9392505050565b600082825260208201905092915050565b7f4e6f206465706f73697420666f756e6400000000000000000000000000000000600082015250565b60006105146010836104cd565b915061051f826104de565b602082019050919050565b6000602082019050818103600083015261054381610507565b9050919050565b7f46756e647320617265206c6f636b656400000000000000000000000000000000600082015250565b60006105806010836104cd565b915061058b8261054a565b602082019050919050565b600060208201905081810360008301526105af81610573565b9050919050565b60006020820190506105cb6000830184610495565b92915050565b7f4c6f636b206475726174696f6e206d757374206265206772656174657220746860008201527f616e203000000000000000000000000000000000000000000000000000000000602082015250565b600061062d6024836104cd565b9150610638826105d1565b604082019050919050565b6000602082019050818103600083015261065c81610620565b9050919050565b7f4e487b7100000000000000000000000000000000000000000000000000000000600052601160045260246000fd5b600061069d826103a7565b91506106a8836103a7565b92508282019050808211156106c0576106bf610663565b5b9291505056fea264697066735822122071759064110d7b7790917e765290897ef3b8891f00db26aff0d0d0f27603b9dc64736f6c63430008130033",
    "linkReferences": {},
    "deployedLinkReferences": {}
}